{
  "_format": "hh-sol-artifact-1",
  "contractName": "NFKey",
  "sourceName": "contracts/NFKey.sol",
  "abi": [
    {
      "inputs": [],
      "stateMutability": "nonpayable",
      "type": "constructor"
    },
    {
      "anonymous": false,
      "inputs": [
        {
          "indexed": true,
          "internalType": "address",
          "name": "owner",
          "type": "address"
        },
        {
          "indexed": true,
          "internalType": "address",
          "name": "approved",
          "type": "address"
        },
        {
          "indexed": true,
          "internalType": "uint256",
          "name": "tokenId",
          "type": "uint256"
        }
      ],
      "name": "Approval",
      "type": "event"
    },
    {
      "anonymous": false,
      "inputs": [
        {
          "indexed": true,
          "internalType": "address",
          "name": "owner",
          "type": "address"
        },
        {
          "indexed": true,
          "internalType": "address",
          "name": "operator",
          "type": "address"
        },
        {
          "indexed": false,
          "internalType": "bool",
          "name": "approved",
          "type": "bool"
        }
      ],
      "name": "ApprovalForAll",
      "type": "event"
    },
    {
      "anonymous": false,
      "inputs": [
        {
          "indexed": false,
          "internalType": "address",
          "name": "sender",
          "type": "address"
        },
        {
          "indexed": false,
          "internalType": "uint256",
          "name": "tokenId",
          "type": "uint256"
        }
      ],
      "name": "NewNFKeyMinted",
      "type": "event"
    },
    {
      "anonymous": false,
      "inputs": [
        {
          "indexed": true,
          "internalType": "address",
          "name": "from",
          "type": "address"
        },
        {
          "indexed": true,
          "internalType": "address",
          "name": "to",
          "type": "address"
        },
        {
          "indexed": true,
          "internalType": "uint256",
          "name": "tokenId",
          "type": "uint256"
        }
      ],
      "name": "Transfer",
      "type": "event"
    },
    {
      "inputs": [
        {
          "internalType": "address",
          "name": "to",
          "type": "address"
        },
        {
          "internalType": "uint256",
          "name": "tokenId",
          "type": "uint256"
        }
      ],
      "name": "approve",
      "outputs": [],
      "stateMutability": "nonpayable",
      "type": "function"
    },
    {
      "inputs": [
        {
          "internalType": "address",
          "name": "owner",
          "type": "address"
        }
      ],
      "name": "balanceOf",
      "outputs": [
        {
          "internalType": "uint256",
          "name": "",
          "type": "uint256"
        }
      ],
      "stateMutability": "view",
      "type": "function"
    },
    {
      "inputs": [
        {
          "internalType": "uint256",
          "name": "tokenId",
          "type": "uint256"
        }
      ],
      "name": "getApproved",
      "outputs": [
        {
          "internalType": "address",
          "name": "",
          "type": "address"
        }
      ],
      "stateMutability": "view",
      "type": "function"
    },
    {
      "inputs": [
        {
          "internalType": "address",
          "name": "walletAddress",
          "type": "address"
        }
      ],
      "name": "getNftsByAddress",
      "outputs": [
        {
          "internalType": "uint256[]",
          "name": "",
          "type": "uint256[]"
        }
      ],
      "stateMutability": "view",
      "type": "function"
    },
    {
      "inputs": [
        {
          "internalType": "address",
          "name": "owner",
          "type": "address"
        },
        {
          "internalType": "address",
          "name": "operator",
          "type": "address"
        }
      ],
      "name": "isApprovedForAll",
      "outputs": [
        {
          "internalType": "bool",
          "name": "",
          "type": "bool"
        }
      ],
      "stateMutability": "view",
      "type": "function"
    },
    {
      "inputs": [],
      "name": "mintNFKey",
      "outputs": [],
      "stateMutability": "nonpayable",
      "type": "function"
    },
    {
      "inputs": [],
      "name": "name",
      "outputs": [
        {
          "internalType": "string",
          "name": "",
          "type": "string"
        }
      ],
      "stateMutability": "view",
      "type": "function"
    },
    {
      "inputs": [
        {
          "internalType": "uint256",
          "name": "tokenId",
          "type": "uint256"
        }
      ],
      "name": "ownerOf",
      "outputs": [
        {
          "internalType": "address",
          "name": "",
          "type": "address"
        }
      ],
      "stateMutability": "view",
      "type": "function"
    },
    {
      "inputs": [
        {
          "internalType": "address",
          "name": "from",
          "type": "address"
        },
        {
          "internalType": "address",
          "name": "to",
          "type": "address"
        },
        {
          "internalType": "uint256",
          "name": "tokenId",
          "type": "uint256"
        }
      ],
      "name": "safeTransferFrom",
      "outputs": [],
      "stateMutability": "nonpayable",
      "type": "function"
    },
    {
      "inputs": [
        {
          "internalType": "address",
          "name": "from",
          "type": "address"
        },
        {
          "internalType": "address",
          "name": "to",
          "type": "address"
        },
        {
          "internalType": "uint256",
          "name": "tokenId",
          "type": "uint256"
        },
        {
          "internalType": "bytes",
          "name": "_data",
          "type": "bytes"
        }
      ],
      "name": "safeTransferFrom",
      "outputs": [],
      "stateMutability": "nonpayable",
      "type": "function"
    },
    {
      "inputs": [
        {
          "internalType": "address",
          "name": "operator",
          "type": "address"
        },
        {
          "internalType": "bool",
          "name": "approved",
          "type": "bool"
        }
      ],
      "name": "setApprovalForAll",
      "outputs": [],
      "stateMutability": "nonpayable",
      "type": "function"
    },
    {
      "inputs": [
        {
          "internalType": "bytes4",
          "name": "interfaceId",
          "type": "bytes4"
        }
      ],
      "name": "supportsInterface",
      "outputs": [
        {
          "internalType": "bool",
          "name": "",
          "type": "bool"
        }
      ],
      "stateMutability": "view",
      "type": "function"
    },
    {
      "inputs": [],
      "name": "symbol",
      "outputs": [
        {
          "internalType": "string",
          "name": "",
          "type": "string"
        }
      ],
      "stateMutability": "view",
      "type": "function"
    },
    {
      "inputs": [
        {
          "internalType": "uint256",
          "name": "tokenId",
          "type": "uint256"
        }
      ],
      "name": "tokenURI",
      "outputs": [
        {
          "internalType": "string",
          "name": "",
          "type": "string"
        }
      ],
      "stateMutability": "view",
      "type": "function"
    },
    {
      "inputs": [
        {
          "internalType": "address",
          "name": "from",
          "type": "address"
        },
        {
          "internalType": "address",
          "name": "to",
          "type": "address"
        },
        {
          "internalType": "uint256",
          "name": "tokenId",
          "type": "uint256"
        }
      ],
      "name": "transferFrom",
      "outputs": [],
      "stateMutability": "nonpayable",
      "type": "function"
    }
  ],
  "bytecode": "0x60806040526127106008556040518061016001604052806101348152602001620036f26101349139600990805190602001906200003e929190620000f3565b503480156200004c57600080fd5b506040518060400160405280600581526020017f4e464b65790000000000000000000000000000000000000000000000000000008152506040518060400160405280600381526020017f4e464b00000000000000000000000000000000000000000000000000000000008152508160009080519060200190620000d1929190620000f3565b508060019080519060200190620000ea929190620000f3565b50505062000208565b8280546200010190620001a3565b90600052602060002090601f01602090048101928262000125576000855562000171565b82601f106200014057805160ff191683800117855562000171565b8280016001018555821562000171579182015b828111156200017057825182559160200191906001019062000153565b5b50905062000180919062000184565b5090565b5b808211156200019f57600081600090555060010162000185565b5090565b60006002820490506001821680620001bc57607f821691505b60208210811415620001d357620001d2620001d9565b5b50919050565b7f4e487b7100000000000000000000000000000000000000000000000000000000600052602260045260246000fd5b6134da80620002186000396000f3fe608060405234801561001057600080fd5b50600436106100f55760003560e01c806342842e0e11610097578063a22cb46511610066578063a22cb46514610284578063b88d4fde146102a0578063c87b56dd146102bc578063e985e9c5146102ec576100f5565b806342842e0e146101ea5780636352211e1461020657806370a082311461023657806395d89b4114610266576100f5565b8063095ea7b3116100d3578063095ea7b31461017857806323b872dd146101945780632d940290146101b05780633a66dd36146101ba576100f5565b806301ffc9a7146100fa57806306fdde031461012a578063081812fc14610148575b600080fd5b610114600480360381019061010f9190612023565b61031c565b6040516101219190612725565b60405180910390f35b6101326103fe565b60405161013f9190612740565b60405180910390f35b610162600480360381019061015d9190612075565b610490565b60405161016f9190612673565b60405180910390f35b610192600480360381019061018d9190611fe7565b610515565b005b6101ae60048036038101906101a99190611ee1565b61062d565b005b6101b861068d565b005b6101d460048036038101906101cf9190611e7c565b6107f6565b6040516101e19190612703565b60405180910390f35b61020460048036038101906101ff9190611ee1565b61093d565b005b610220600480360381019061021b9190612075565b61095d565b60405161022d9190612673565b60405180910390f35b610250600480360381019061024b9190611e7c565b610a0f565b60405161025d9190612982565b60405180910390f35b61026e610ac7565b60405161027b9190612740565b60405180910390f35b61029e60048036038101906102999190611fab565b610b59565b005b6102ba60048036038101906102b59190611f30565b610b6f565b005b6102d660048036038101906102d19190612075565b610bd1565b6040516102e39190612740565b60405180910390f35b61030660048036038101906103019190611ea5565b610d23565b6040516103139190612725565b60405180910390f35b60007f80ac58cd000000000000000000000000000000000000000000000000000000007bffffffffffffffffffffffffffffffffffffffffffffffffffffffff1916827bffffffffffffffffffffffffffffffffffffffffffffffffffffffff191614806103e757507f5b5e139f000000000000000000000000000000000000000000000000000000007bffffffffffffffffffffffffffffffffffffffffffffffffffffffff1916827bffffffffffffffffffffffffffffffffffffffffffffffffffffffff1916145b806103f757506103f682610db7565b5b9050919050565b60606000805461040d90612c4f565b80601f016020809104026020016040519081016040528092919081815260200182805461043990612c4f565b80156104865780601f1061045b57610100808354040283529160200191610486565b820191906000526020600020905b81548152906001019060200180831161046957829003601f168201915b5050505050905090565b600061049b82610e21565b6104da576040517f08c379a00000000000000000000000000000000000000000000000000000000081526004016104d1906128c2565b60405180910390fd5b6004600083815260200190815260200160002060009054906101000a900473ffffffffffffffffffffffffffffffffffffffff169050919050565b60006105208261095d565b90508073ffffffffffffffffffffffffffffffffffffffff168373ffffffffffffffffffffffffffffffffffffffff161415610591576040517f08c379a000000000000000000000000000000000000000000000000000000000815260040161058890612922565b60405180910390fd5b8073ffffffffffffffffffffffffffffffffffffffff166105b0610e8d565b73ffffffffffffffffffffffffffffffffffffffff1614806105df57506105de816105d9610e8d565b610d23565b5b61061e576040517f08c379a000000000000000000000000000000000000000000000000000000000815260040161061590612802565b60405180910390fd5b6106288383610e95565b505050565b61063e610638610e8d565b82610f4e565b61067d576040517f08c379a000000000000000000000000000000000000000000000000000000000815260040161067490612942565b60405180910390fd5b61068883838361102c565b505050565b60006106996007611288565b905060085481106106df576040517f08c379a00000000000000000000000000000000000000000000000000000000081526004016106d690612962565b60405180910390fd5b60006106f66001836106f19190612a84565b611296565b6040516020016107069190612651565b6040516020818303038152906040529050600060098260405160200161072d9291906125bb565b604051602081830303815290604052905060006107728361074d84611443565b60405160200161075e9291906125ea565b604051602081830303815290604052611443565b9050600081604051602001610787919061262f565b60405160208183030381529060405290506107a23386611601565b6107ac858261161f565b6107b66007611693565b7f515006e8769894cbbced537d583d72b41ea03c44ec9b5ce6202fe9c2e486065d33866040516107e79291906126da565b60405180910390a15050505050565b6060600061080383610a0f565b905060008167ffffffffffffffff811115610847577f4e487b7100000000000000000000000000000000000000000000000000000000600052604160045260246000fd5b6040519080825280602002602001820160405280156108755781602001602082028036833780820191505090505b5090506000805b6108866007611288565b811015610931578573ffffffffffffffffffffffffffffffffffffffff166108ad8261095d565b73ffffffffffffffffffffffffffffffffffffffff16141561091e5780838381518110610903577f4e487b7100000000000000000000000000000000000000000000000000000000600052603260045260246000fd5b602002602001018181525050818061091a90612cb2565b9250505b808061092990612cb2565b91505061087c565b50819350505050919050565b61095883838360405180602001604052806000815250610b6f565b505050565b6000806002600084815260200190815260200160002060009054906101000a900473ffffffffffffffffffffffffffffffffffffffff169050600073ffffffffffffffffffffffffffffffffffffffff168173ffffffffffffffffffffffffffffffffffffffff161415610a06576040517f08c379a00000000000000000000000000000000000000000000000000000000081526004016109fd90612842565b60405180910390fd5b80915050919050565b60008073ffffffffffffffffffffffffffffffffffffffff168273ffffffffffffffffffffffffffffffffffffffff161415610a80576040517f08c379a0000000000000000000000000000000000000000000000000000000008152600401610a7790612822565b60405180910390fd5b600360008373ffffffffffffffffffffffffffffffffffffffff1673ffffffffffffffffffffffffffffffffffffffff168152602001908152602001600020549050919050565b606060018054610ad690612c4f565b80601f0160208091040260200160405190810160405280929190818152602001828054610b0290612c4f565b8015610b4f5780601f10610b2457610100808354040283529160200191610b4f565b820191906000526020600020905b815481529060010190602001808311610b3257829003601f168201915b5050505050905090565b610b6b610b64610e8d565b83836116a9565b5050565b610b80610b7a610e8d565b83610f4e565b610bbf576040517f08c379a0000000000000000000000000000000000000000000000000000000008152600401610bb690612942565b60405180910390fd5b610bcb84848484611816565b50505050565b6060610bdc82610e21565b610c1b576040517f08c379a0000000000000000000000000000000000000000000000000000000008152600401610c12906128a2565b60405180910390fd5b6000600660008481526020019081526020016000208054610c3b90612c4f565b80601f0160208091040260200160405190810160405280929190818152602001828054610c6790612c4f565b8015610cb45780601f10610c8957610100808354040283529160200191610cb4565b820191906000526020600020905b815481529060010190602001808311610c9757829003601f168201915b505050505090506000610cc5611872565b9050600081511415610cdb578192505050610d1e565b600082511115610d10578082604051602001610cf8929190612597565b60405160208183030381529060405292505050610d1e565b610d1984611889565b925050505b919050565b6000600560008473ffffffffffffffffffffffffffffffffffffffff1673ffffffffffffffffffffffffffffffffffffffff16815260200190815260200160002060008373ffffffffffffffffffffffffffffffffffffffff1673ffffffffffffffffffffffffffffffffffffffff16815260200190815260200160002060009054906101000a900460ff16905092915050565b60007f01ffc9a7000000000000000000000000000000000000000000000000000000007bffffffffffffffffffffffffffffffffffffffffffffffffffffffff1916827bffffffffffffffffffffffffffffffffffffffffffffffffffffffff1916149050919050565b60008073ffffffffffffffffffffffffffffffffffffffff166002600084815260200190815260200160002060009054906101000a900473ffffffffffffffffffffffffffffffffffffffff1673ffffffffffffffffffffffffffffffffffffffff1614159050919050565b600033905090565b816004600083815260200190815260200160002060006101000a81548173ffffffffffffffffffffffffffffffffffffffff021916908373ffffffffffffffffffffffffffffffffffffffff160217905550808273ffffffffffffffffffffffffffffffffffffffff16610f088361095d565b73ffffffffffffffffffffffffffffffffffffffff167f8c5be1e5ebec7d5bd14f71427d1e84f3dd0314c0f7b2291e5b200ac8c7c3b92560405160405180910390a45050565b6000610f5982610e21565b610f98576040517f08c379a0000000000000000000000000000000000000000000000000000000008152600401610f8f906127e2565b60405180910390fd5b6000610fa38361095d565b90508073ffffffffffffffffffffffffffffffffffffffff168473ffffffffffffffffffffffffffffffffffffffff16148061101257508373ffffffffffffffffffffffffffffffffffffffff16610ffa84610490565b73ffffffffffffffffffffffffffffffffffffffff16145b8061102357506110228185610d23565b5b91505092915050565b8273ffffffffffffffffffffffffffffffffffffffff1661104c8261095d565b73ffffffffffffffffffffffffffffffffffffffff16146110a2576040517f08c379a0000000000000000000000000000000000000000000000000000000008152600401611099906128e2565b60405180910390fd5b600073ffffffffffffffffffffffffffffffffffffffff168273ffffffffffffffffffffffffffffffffffffffff161415611112576040517f08c379a0000000000000000000000000000000000000000000000000000000008152600401611109906127a2565b60405180910390fd5b61111d838383611930565b611128600082610e95565b6001600360008573ffffffffffffffffffffffffffffffffffffffff1673ffffffffffffffffffffffffffffffffffffffff16815260200190815260200160002060008282546111789190612b65565b925050819055506001600360008473ffffffffffffffffffffffffffffffffffffffff1673ffffffffffffffffffffffffffffffffffffffff16815260200190815260200160002060008282546111cf9190612a84565b92505081905550816002600083815260200190815260200160002060006101000a81548173ffffffffffffffffffffffffffffffffffffffff021916908373ffffffffffffffffffffffffffffffffffffffff160217905550808273ffffffffffffffffffffffffffffffffffffffff168473ffffffffffffffffffffffffffffffffffffffff167fddf252ad1be2c89b69c2b068fc378daa952ba7f163c4a11628f55a4df523b3ef60405160405180910390a4505050565b600081600001549050919050565b606060008214156112de576040518060400160405280600181526020017f3000000000000000000000000000000000000000000000000000000000000000815250905061143e565b600082905060005b600082146113105780806112f990612cb2565b915050600a826113099190612ada565b91506112e6565b60008167ffffffffffffffff811115611352577f4e487b7100000000000000000000000000000000000000000000000000000000600052604160045260246000fd5b6040519080825280601f01601f1916602001820160405280156113845781602001600182028036833780820191505090505b5090505b600085146114375760018261139d9190612b65565b9150600a856113ac9190612cfb565b60306113b89190612a84565b60f81b8183815181106113f4577f4e487b7100000000000000000000000000000000000000000000000000000000600052603260045260246000fd5b60200101907effffffffffffffffffffffffffffffffffffffffffffffffffffffffffffff1916908160001a905350600a856114309190612ada565b9450611388565b8093505050505b919050565b6060600082519050600081141561146c57604051806020016040528060008152509150506115fc565b6000600360028361147d9190612a84565b6114879190612ada565b60046114939190612b0b565b905060006020826114a49190612a84565b67ffffffffffffffff8111156114e3577f4e487b7100000000000000000000000000000000000000000000000000000000600052604160045260246000fd5b6040519080825280601f01601f1916602001820160405280156115155781602001600182028036833780820191505090505b5090506000604051806060016040528060408152602001613465604091399050600181016020830160005b868110156115b95760038101905062ffffff818a015116603f8160121c168401518060081b905060ff603f83600c1c1686015116810190508060081b905060ff603f8360061c1686015116810190508060081b905060ff603f831686015116810190508060e01b90508084526004840193505050611540565b5060038606600181146115d357600281146115e3576115ee565b613d3d60f01b60028303526115ee565b603d60f81b60018303525b508484525050819450505050505b919050565b61161b828260405180602001604052806000815250611935565b5050565b61162882610e21565b611667576040517f08c379a000000000000000000000000000000000000000000000000000000000815260040161165e90612862565b60405180910390fd5b8060066000848152602001908152602001600020908051906020019061168e929190611d08565b505050565b6001816000016000828254019250508190555050565b8173ffffffffffffffffffffffffffffffffffffffff168373ffffffffffffffffffffffffffffffffffffffff161415611718576040517f08c379a000000000000000000000000000000000000000000000000000000000815260040161170f906127c2565b60405180910390fd5b80600560008573ffffffffffffffffffffffffffffffffffffffff1673ffffffffffffffffffffffffffffffffffffffff16815260200190815260200160002060008473ffffffffffffffffffffffffffffffffffffffff1673ffffffffffffffffffffffffffffffffffffffff16815260200190815260200160002060006101000a81548160ff0219169083151502179055508173ffffffffffffffffffffffffffffffffffffffff168373ffffffffffffffffffffffffffffffffffffffff167f17307eab39ab6107e8899845ad3d59bd9653f200f220920489ca2b5937696c31836040516118099190612725565b60405180910390a3505050565b61182184848461102c565b61182d84848484611990565b61186c576040517f08c379a000000000000000000000000000000000000000000000000000000000815260040161186390612762565b60405180910390fd5b50505050565b606060405180602001604052806000815250905090565b606061189482610e21565b6118d3576040517f08c379a00000000000000000000000000000000000000000000000000000000081526004016118ca90612902565b60405180910390fd5b60006118dd611872565b905060008151116118fd5760405180602001604052806000815250611928565b8061190784611296565b604051602001611918929190612597565b6040516020818303038152906040525b915050919050565b505050565b61193f8383611b27565b61194c6000848484611990565b61198b576040517f08c379a000000000000000000000000000000000000000000000000000000000815260040161198290612762565b60405180910390fd5b505050565b60006119b18473ffffffffffffffffffffffffffffffffffffffff16611cf5565b15611b1a578373ffffffffffffffffffffffffffffffffffffffff1663150b7a026119da610e8d565b8786866040518563ffffffff1660e01b81526004016119fc949392919061268e565b602060405180830381600087803b158015611a1657600080fd5b505af1925050508015611a4757506040513d601f19601f82011682018060405250810190611a44919061204c565b60015b611aca573d8060008114611a77576040519150601f19603f3d011682016040523d82523d6000602084013e611a7c565b606091505b50600081511415611ac2576040517f08c379a0000000000000000000000000000000000000000000000000000000008152600401611ab990612762565b60405180910390fd5b805181602001fd5b63150b7a0260e01b7bffffffffffffffffffffffffffffffffffffffffffffffffffffffff1916817bffffffffffffffffffffffffffffffffffffffffffffffffffffffff191614915050611b1f565b600190505b949350505050565b600073ffffffffffffffffffffffffffffffffffffffff168273ffffffffffffffffffffffffffffffffffffffff161415611b97576040517f08c379a0000000000000000000000000000000000000000000000000000000008152600401611b8e90612882565b60405180910390fd5b611ba081610e21565b15611be0576040517f08c379a0000000000000000000000000000000000000000000000000000000008152600401611bd790612782565b60405180910390fd5b611bec60008383611930565b6001600360008473ffffffffffffffffffffffffffffffffffffffff1673ffffffffffffffffffffffffffffffffffffffff1681526020019081526020016000206000828254611c3c9190612a84565b92505081905550816002600083815260200190815260200160002060006101000a81548173ffffffffffffffffffffffffffffffffffffffff021916908373ffffffffffffffffffffffffffffffffffffffff160217905550808273ffffffffffffffffffffffffffffffffffffffff16600073ffffffffffffffffffffffffffffffffffffffff167fddf252ad1be2c89b69c2b068fc378daa952ba7f163c4a11628f55a4df523b3ef60405160405180910390a45050565b600080823b905060008111915050919050565b828054611d1490612c4f565b90600052602060002090601f016020900481019282611d365760008555611d7d565b82601f10611d4f57805160ff1916838001178555611d7d565b82800160010185558215611d7d579182015b82811115611d7c578251825591602001919060010190611d61565b5b509050611d8a9190611d8e565b5090565b5b80821115611da7576000816000905550600101611d8f565b5090565b6000611dbe611db9846129c2565b61299d565b905082815260208101848484011115611dd657600080fd5b611de1848285612c0d565b509392505050565b600081359050611df881613408565b92915050565b600081359050611e0d8161341f565b92915050565b600081359050611e2281613436565b92915050565b600081519050611e3781613436565b92915050565b600082601f830112611e4e57600080fd5b8135611e5e848260208601611dab565b91505092915050565b600081359050611e768161344d565b92915050565b600060208284031215611e8e57600080fd5b6000611e9c84828501611de9565b91505092915050565b60008060408385031215611eb857600080fd5b6000611ec685828601611de9565b9250506020611ed785828601611de9565b9150509250929050565b600080600060608486031215611ef657600080fd5b6000611f0486828701611de9565b9350506020611f1586828701611de9565b9250506040611f2686828701611e67565b9150509250925092565b60008060008060808587031215611f4657600080fd5b6000611f5487828801611de9565b9450506020611f6587828801611de9565b9350506040611f7687828801611e67565b925050606085013567ffffffffffffffff811115611f9357600080fd5b611f9f87828801611e3d565b91505092959194509250565b60008060408385031215611fbe57600080fd5b6000611fcc85828601611de9565b9250506020611fdd85828601611dfe565b9150509250929050565b60008060408385031215611ffa57600080fd5b600061200885828601611de9565b925050602061201985828601611e67565b9150509250929050565b60006020828403121561203557600080fd5b600061204384828501611e13565b91505092915050565b60006020828403121561205e57600080fd5b600061206c84828501611e28565b91505092915050565b60006020828403121561208757600080fd5b600061209584828501611e67565b91505092915050565b60006120aa8383612579565b60208301905092915050565b6120bf81612b99565b82525050565b60006120d082612a18565b6120da8185612a46565b93506120e5836129f3565b8060005b838110156121165781516120fd888261209e565b975061210883612a39565b9250506001810190506120e9565b5085935050505092915050565b61212c81612bab565b82525050565b600061213d82612a23565b6121478185612a57565b9350612157818560208601612c1c565b61216081612de8565b840191505092915050565b600061217682612a2e565b6121808185612a68565b9350612190818560208601612c1c565b61219981612de8565b840191505092915050565b60006121af82612a2e565b6121b98185612a79565b93506121c9818560208601612c1c565b80840191505092915050565b600081546121e281612c4f565b6121ec8186612a79565b9450600182166000811461220757600181146122185761224b565b60ff1983168652818601935061224b565b61222185612a03565b60005b8381101561224357815481890152600182019150602081019050612224565b838801955050505b50505092915050565b6000612261603283612a68565b915061226c82612df9565b604082019050919050565b6000612284601c83612a68565b915061228f82612e48565b602082019050919050565b60006122a7602483612a68565b91506122b282612e71565b604082019050919050565b60006122ca601983612a68565b91506122d582612ec0565b602082019050919050565b60006122ed602c83612a68565b91506122f882612ee9565b604082019050919050565b6000612310600d83612a79565b915061231b82612f38565b600d82019050919050565b6000612333603883612a68565b915061233e82612f61565b604082019050919050565b6000612356602a83612a68565b915061236182612fb0565b604082019050919050565b6000612379602983612a68565b915061238482612fff565b604082019050919050565b600061239c602e83612a68565b91506123a78261304e565b604082019050919050565b60006123bf606e83612a79565b91506123ca8261309d565b606e82019050919050565b60006123e2600283612a79565b91506123ed82613138565b600282019050919050565b6000612405602083612a68565b915061241082613161565b602082019050919050565b6000612428603183612a68565b91506124338261318a565b604082019050919050565b600061244b602c83612a68565b9150612456826131d9565b604082019050919050565b600061246e602983612a68565b915061247982613228565b604082019050919050565b6000612491602f83612a68565b915061249c82613277565b604082019050919050565b60006124b4600a83612a79565b91506124bf826132c6565b600a82019050919050565b60006124d7602183612a68565b91506124e2826132ef565b604082019050919050565b60006124fa601d83612a79565b91506125058261333e565b601d82019050919050565b600061251d603183612a68565b915061252882613367565b604082019050919050565b6000612540600783612a79565b915061254b826133b6565b600782019050919050565b6000612563601b83612a68565b915061256e826133df565b602082019050919050565b61258281612c03565b82525050565b61259181612c03565b82525050565b60006125a382856121a4565b91506125af82846121a4565b91508190509392505050565b60006125c782856121d5565b91506125d382846121a4565b91506125de82612303565b91508190509392505050565b60006125f5826124a7565b915061260182856121a4565b915061260c826123b2565b915061261882846121a4565b9150612623826123d5565b91508190509392505050565b600061263a826124ed565b915061264682846121a4565b915081905092915050565b600061265c82612533565b915061266882846121a4565b915081905092915050565b600060208201905061268860008301846120b6565b92915050565b60006080820190506126a360008301876120b6565b6126b060208301866120b6565b6126bd6040830185612588565b81810360608301526126cf8184612132565b905095945050505050565b60006040820190506126ef60008301856120b6565b6126fc6020830184612588565b9392505050565b6000602082019050818103600083015261271d81846120c5565b905092915050565b600060208201905061273a6000830184612123565b92915050565b6000602082019050818103600083015261275a818461216b565b905092915050565b6000602082019050818103600083015261277b81612254565b9050919050565b6000602082019050818103600083015261279b81612277565b9050919050565b600060208201905081810360008301526127bb8161229a565b9050919050565b600060208201905081810360008301526127db816122bd565b9050919050565b600060208201905081810360008301526127fb816122e0565b9050919050565b6000602082019050818103600083015261281b81612326565b9050919050565b6000602082019050818103600083015261283b81612349565b9050919050565b6000602082019050818103600083015261285b8161236c565b9050919050565b6000602082019050818103600083015261287b8161238f565b9050919050565b6000602082019050818103600083015261289b816123f8565b9050919050565b600060208201905081810360008301526128bb8161241b565b9050919050565b600060208201905081810360008301526128db8161243e565b9050919050565b600060208201905081810360008301526128fb81612461565b9050919050565b6000602082019050818103600083015261291b81612484565b9050919050565b6000602082019050818103600083015261293b816124ca565b9050919050565b6000602082019050818103600083015261295b81612510565b9050919050565b6000602082019050818103600083015261297b81612556565b9050919050565b60006020820190506129976000830184612588565b92915050565b60006129a76129b8565b90506129b38282612c81565b919050565b6000604051905090565b600067ffffffffffffffff8211156129dd576129dc612db9565b5b6129e682612de8565b9050602081019050919050565b6000819050602082019050919050565b60008190508160005260206000209050919050565b600081519050919050565b600081519050919050565b600081519050919050565b6000602082019050919050565b600082825260208201905092915050565b600082825260208201905092915050565b600082825260208201905092915050565b600081905092915050565b6000612a8f82612c03565b9150612a9a83612c03565b9250827fffffffffffffffffffffffffffffffffffffffffffffffffffffffffffffffff03821115612acf57612ace612d2c565b5b828201905092915050565b6000612ae582612c03565b9150612af083612c03565b925082612b0057612aff612d5b565b5b828204905092915050565b6000612b1682612c03565b9150612b2183612c03565b9250817fffffffffffffffffffffffffffffffffffffffffffffffffffffffffffffffff0483118215151615612b5a57612b59612d2c565b5b828202905092915050565b6000612b7082612c03565b9150612b7b83612c03565b925082821015612b8e57612b8d612d2c565b5b828203905092915050565b6000612ba482612be3565b9050919050565b60008115159050919050565b60007fffffffff0000000000000000000000000000000000000000000000000000000082169050919050565b600073ffffffffffffffffffffffffffffffffffffffff82169050919050565b6000819050919050565b82818337600083830152505050565b60005b83811015612c3a578082015181840152602081019050612c1f565b83811115612c49576000848401525b50505050565b60006002820490506001821680612c6757607f821691505b60208210811415612c7b57612c7a612d8a565b5b50919050565b612c8a82612de8565b810181811067ffffffffffffffff82111715612ca957612ca8612db9565b5b80604052505050565b6000612cbd82612c03565b91507fffffffffffffffffffffffffffffffffffffffffffffffffffffffffffffffff821415612cf057612cef612d2c565b5b600182019050919050565b6000612d0682612c03565b9150612d1183612c03565b925082612d2157612d20612d5b565b5b828206905092915050565b7f4e487b7100000000000000000000000000000000000000000000000000000000600052601160045260246000fd5b7f4e487b7100000000000000000000000000000000000000000000000000000000600052601260045260246000fd5b7f4e487b7100000000000000000000000000000000000000000000000000000000600052602260045260246000fd5b7f4e487b7100000000000000000000000000000000000000000000000000000000600052604160045260246000fd5b6000601f19601f8301169050919050565b7f4552433732313a207472616e7366657220746f206e6f6e20455243373231526560008201527f63656976657220696d706c656d656e7465720000000000000000000000000000602082015250565b7f4552433732313a20746f6b656e20616c7265616479206d696e74656400000000600082015250565b7f4552433732313a207472616e7366657220746f20746865207a65726f2061646460008201527f7265737300000000000000000000000000000000000000000000000000000000602082015250565b7f4552433732313a20617070726f766520746f2063616c6c657200000000000000600082015250565b7f4552433732313a206f70657261746f7220717565727920666f72206e6f6e657860008201527f697374656e7420746f6b656e0000000000000000000000000000000000000000602082015250565b7f3c2f746578743e3c2f7376673e00000000000000000000000000000000000000600082015250565b7f4552433732313a20617070726f76652063616c6c6572206973206e6f74206f7760008201527f6e6572206e6f7220617070726f76656420666f7220616c6c0000000000000000602082015250565b7f4552433732313a2062616c616e636520717565727920666f7220746865207a6560008201527f726f206164647265737300000000000000000000000000000000000000000000602082015250565b7f4552433732313a206f776e657220717565727920666f72206e6f6e657869737460008201527f656e7420746f6b656e0000000000000000000000000000000000000000000000602082015250565b7f45524337323155524953746f726167653a2055524920736574206f66206e6f6e60008201527f6578697374656e7420746f6b656e000000000000000000000000000000000000602082015250565b7f222c20226465736372697074696f6e223a2022416e204e46542074686174206760008201527f72616e747320796f752061636365737320746f206578636c757369766520726560208201527f736f7572636573222c2022696d616765223a2022646174613a696d6167652f7360408201527f76672b786d6c3b6261736536342c000000000000000000000000000000000000606082015250565b7f227d000000000000000000000000000000000000000000000000000000000000600082015250565b7f4552433732313a206d696e7420746f20746865207a65726f2061646472657373600082015250565b7f45524337323155524953746f726167653a2055524920717565727920666f722060008201527f6e6f6e6578697374656e7420746f6b656e000000000000000000000000000000602082015250565b7f4552433732313a20617070726f76656420717565727920666f72206e6f6e657860008201527f697374656e7420746f6b656e0000000000000000000000000000000000000000602082015250565b7f4552433732313a207472616e73666572206f6620746f6b656e2074686174206960008201527f73206e6f74206f776e0000000000000000000000000000000000000000000000602082015250565b7f4552433732314d657461646174613a2055524920717565727920666f72206e6f60008201527f6e6578697374656e7420746f6b656e0000000000000000000000000000000000602082015250565b7f7b226e616d65223a202200000000000000000000000000000000000000000000600082015250565b7f4552433732313a20617070726f76616c20746f2063757272656e74206f776e6560008201527f7200000000000000000000000000000000000000000000000000000000000000602082015250565b7f646174613a6170706c69636174696f6e2f6a736f6e3b6261736536342c000000600082015250565b7f4552433732313a207472616e736665722063616c6c6572206973206e6f74206f60008201527f776e6572206e6f7220617070726f766564000000000000000000000000000000602082015250565b7f4e464b6579202300000000000000000000000000000000000000000000000000600082015250565b7f4d617820737570706c7920686173206265656e20726561636865640000000000600082015250565b61341181612b99565b811461341c57600080fd5b50565b61342881612bab565b811461343357600080fd5b50565b61343f81612bb7565b811461344a57600080fd5b50565b61345681612c03565b811461346157600080fd5b5056fe4142434445464748494a4b4c4d4e4f505152535455565758595a6162636465666768696a6b6c6d6e6f707172737475767778797a303132333435363738392b2fa2646970667358221220c74743bf0602a3e4c7a83be511a163cb389fb9ed94f73c9819bf370f59d3708d64736f6c634300080400333c73766720786d6c6e733d27687474703a2f2f7777772e77332e6f72672f323030302f73766727207072657365727665417370656374526174696f3d27784d696e594d696e206d656574272076696577426f783d273020302033353020333530273e3c7374796c653e2e62617365207b2066696c6c3a2077686974653b20666f6e742d66616d696c793a2073616e732d73657269663b20666f6e742d73697a653a20323470783b207d3c2f7374796c653e3c726563742077696474683d273130302527206865696768743d2731303025272066696c6c3d27626c61636b27202f3e3c7465787420783d273530252720793d273530252720636c6173733d27626173652720646f6d696e616e742d626173656c696e653d276d6964646c652720746578742d616e63686f723d276d6964646c65273e",
  "linkReferences": {},
  "deployedLinkReferences": {}
}